:102000000080002015210000FD200000FD200000C0
:1020100000000000000000000000000000000000C0
:10202000000000000000000000000000FD20000093
:102030000000000000000000FD20000069210000F9
:10204000FD200000FD200000FD200000FD2000001C
:10205000FD200000FD200000FD2000000121000007
:10206000FD200000CD940000FD200000FD200000B8
:102070006D5B0000FD200000DD940000FD200000ED
:10208000FD200000FD200000FD200000FD200000DC
:1020900000000000FD200000FD200000FD200000E9
:1020A000FD200000FD200000FD200000FD200000BC
:1020B0000000000010B5064C2378002B07D1054B1B
:1020C000002B02D0044800E000BF0123237010BDA4
:1020D000E001002000000000280F0100044B10B5B3
:1020E000002B03D00349044800E000BF10BDC046E8
:1020F00000000000E4010020280F0100FEE70000BE
:10210000034B10B51B68002B00D0984710BDC0468C
:10211000FC01002070B50F490F4CA14204D100F022
:1021200053F800F0A7FBFEE70C4D00238D42F6D0DC
:10213000CA18E818A24205D3094B8242EFD00949D8
:10214000002204E0006804331060F1E704C38B420E
:10215000FCD3E4E700000020E00100202C0F010088
:10216000E0010020A436002010B500F02AF8002875
:1021700001D100F01BF810BD014B18607047C0463C
:10218000FC010020014B18687047C0460002002087
:1021900070B5041E07D0044D2E6800F011F82B68AE
:1021A0009B1BA342F9D370BD0002002010B5034A67
:1021B00013680133136000F041FB10BD00020020E2
:1021C00070470020704700001E2270B546484749FE
:1021D000436893431C3A1343436008238C692343A9
:1021E0008B61434C434B9C829C8A14439C82DC68E9
:1021F0001442FCD00124404A14701578254203D0C3
:1022000055786DB2002DF8DB01249460547864B2E7
:10221000002CFBDB394C5460547864B2002CFBDB9F
:102220008224E4015480547864B2002CFBDB022445
:102230009C840E34DD682542FCD0314CDC621024D5
:10224000DD682542FCD09D8C2E4C2C439C841024B0
:10225000DD682542FCD002249D8C80262C439C8482
:102260004024DD683542FCD0DD682542F9D01024D9
:10227000DD682542FCD000249460547864B2002CC0
:10228000FBDB214C5460547864B2002CFBDB1C6AED
:102290001E4D2C4080251C621C6AAC431C6203232B
:1022A00093601B4B536053785BB2002BFBDB002326
:1022B000FF240B72174A4B728B72CB72164B1A604B
:1022C000164B174A1B6811689A065B01C90E23401A
:1022D000520F12020B431343124A138580234268A4
:1022E0001343436070BDC0460040004100040040FD
:1022F0000C06000000080040000C00400105010031
:10230000B905FF7D040A000000070300FFFCFFFF82
:1023100003060100006CDC02000000202460800045
:102320002060800000400042FA21314B10B518684F
:10233000890009F0B7FA2F4B0138984256D82E4938
:102340002E4A4860C020136A00061B021B0A034382
:102350001362002407238C600B608021136A090636
:102360001B021B0A0B431362FC22254B196A0A430A
:102370001A62FC22196A92010A431A62A022196A9F
:10238000D2020A431A6220000021013400F070F9E1
:10239000142CF8D11B4B1C005A7852B2002AFBDBDC
:1023A000194A5A80194B1A00597EC9090129FBD0D4
:1023B000E421C90099803F21D970537EDB09012BAC
:1023C000FBD0C02300205B011361907000F034F853
:1023D00063785BB2002BFBDB0D4B0E4A6380D37935
:1023E000DB09012BFBD04123537010BDFEE7C04633
:1023F00000000020FFFFFF0010E000E000ED00E023
:1024000000040040000C00401E400000004000425C
:102410002140000000480042914202D002D98A1AAD
:10242000D0407047521A9040FBE70000014B186003
:102430007047C04604000020164A00B51300517EC4
:10244000C9090129FBD00138042816D81969124A94
:102450000A400F211A615A788A4309F019FA0308D1
:10246000060B0300110001220A435A7000BD11003F
:102470000322F9E711000222F6E7F02311691B0598
:102480000B430F21136153788B43190002230B4335
:102490005370EBE700400042FFFFFFF01823434377
:1024A000F0B56A4A87B09B18DA6806000C00009203
:1024B000920722D51B7C5BB2002B01D0142B1AD1C2
:1024C000634B0A2219682000FFF7A6FF614A130038
:1024D000D179C9090129FBD08005800D1081DA79F5
:1024E000D209012AFBD0022219780A431A70DA793C
:1024F000D209012AFBD007B0F0BD0827009A544D3D
:102500003A40019200D191E012229B5E296820009E
:1025100010220193FFF780FF019B05001F126B46FD
:102520001C79009B0421DB0600D40521300000F05B
:1025300017F9494BBA00D658484BDA5D002A54D1F6
:102540000132DA5546490F3202A80AF01EFB02AAF0
:102550007B009B5A8022D2011A43424B5A805A7800
:10256000D209012AFBD0022297421BD93388934318
:102570003380F37BDB09FCD1328840331343338053
:10258000F37BDB09FCD10C34ADB26400A553F37BC3
:10259000DB09FCD13288023313433380F37BDB0940
:1025A000FCD1A8E7336893432F4A33601300B16826
:1025B0001142FCD10222F16B0A43F263B2681A4263
:1025C000FCD11034A40034196560B2681A42FCD101
:1025D000264A3264B2681A42FCD1022231680A43A8
:1025E0003260B2681A42FCD185E7022F07D90C3459
:1025F000ADB26400A553F37BDB09FCD17BE702237A
:10260000727913437371184B1A00B1681942FCD1E7
:102610001C34A400A551B3681342FCD102233179C4
:102620000B433371B3681342FCD164E7012100F01E
:102630001FF829683A002000FFF7EEFE01997F2875
:1026400000D90121300000F05FF854E7B408010020
:10265000040000200048004278000020040200200E
:102660007CCE0000000C0040FF0F7F00FFFF000049
:10267000182330B51D00040045430820204A551991
:102680002856013014D0032912D808006343D156CC
:10269000D31809F0FDF802280E1B5868CB0102215F
:1026A000184A9B181A1840321170012282405A6051
:1026B00030BD5868CB010621124A9B181A184032C7
:1026C0001170012282405A609A61F1E75868CB018B
:1026D00006210C4A9B181A184032117001228240C0
:1026E0005A605A61E4E75868CB010221054A9B18F9
:1026F0001A1840321170012282409A60D8E7C04611
:10270000B4080100004400411823F0B508245843E0
:10271000114A13181C5701341BD0012635005F687D
:102720008356BD400D4ADB019A18906805420BD1D3
:102730000C00601E8441D2194032107834400336B8
:10274000A400B04320431070044A9B18002901D113
:102750005D61F0BD9D61FCE7B408010000440041EB
:1027600018224243F8B52C4E0300B218127A52B226
:10277000140001320ED0481C00240C280AD809F09D
:1027800087F8071F1F1F1F1F1F1F1F0B0B0B0B009F
:10279000012464422000F8BD092905D10021180058
:1027A000FFF766FF0024F5E70A2901D10839F6E7AB
:1027B00000240B29EED10A391800FFF759FFE9E789
:1027C00018225343F218556801202C00F356134A7F
:1027D000DB016E089B18C9B204409E19002C0DD075
:1027E0000F2430363278090122401143C9B25B19F7
:1027F000317040331A7810431870D3E732000F2736
:10280000303216785B19BE433143117040331A7869
:1028100010431870BEE7C046B408010000440041F0
:10282000014B18607047C046080000200122024B8F
:1028300052421A607047C04608000020094A1368D7
:10284000591C0DD0013B1360002B09D172B6BFF3A8
:102850004F8F054B054ADA60BFF34F8FC046FDE747
:102860007047C0460800002000ED00E00400FA05B3
:102870007047000010B5FFF757FD0AF03FF9FFF76A
:10288000F7FF0120FFF784FC084C200007F032FD21
:10289000200007F0A9FD00F07DF900F0D5F9044B08
:1028A000002BFAD000E000BFF7E7C046BC2F0020A5
:1028B00000000000002802D0024B416003600A7053
:1028C0007047C04654060100002807D0044B416001
:1028D000036080235B028360FF2303737047C0465D
:1028E0008C060100002807D0044B41600360802360
:1028F0005B028360FF2303737047C04674060100C8
:1029000010B5044805F06EFE034B1A68034B1A60BD
:1029100010BDC046A42A0020480300201402002055
:1029200070B504000D001600002801D004F064FE0C
:102930002E70200070BD70B504000D001600002838
:1029400001D004F0F9FF2E70200070BD70B50400B6
:102950000D001600002801D004F01EFE2E7020008D
:1029600070BD10B50368C9B21B68984710BD7047A9
:1029700010B505240800220002490AF006F92000DB
:1029800010BDC04679CF000010B5002802D0022843
:1029900003D010BD01F0F8F9FBE701F0D3F9F8E737
:1029A00010B5FFF7F1FF10BD10B50E4805F0C4FDDE
:1029B0000D4804F0D3F80D4804F002FB0C4804F075
:1029C0002BFA0C4806F068F90B4805F021FD0B487E
:1029D00003F038F90A4805F093FF0A4805F022FE93
:1029E000002010BDA02A0020742900208129002089
:1029F00079290020C02A00200D2A00202C2900203F
:102A0000A62A0020A52A002010B5104803F0C8FD12
:102A10000F4804F093F80F4808F002FD0E4801F04B
:102A20009DF90E4803F082FF0D4808F00DFC0D489B
:102A300005F012FA0C4804F01FFA0C4806F008FAE8
:102A40000B4803F00FF9002010BDC04643290020B9
:102A5000742900207D350020C20300204E2900206B
:102A60000A020020002A002079290020C02A002024
:102A70002C29002010B5064803F038FE054805F063
:102A800079F8054804F090F9044805F039FA10BDCA
:102A9000432900209C29002079290020052A0020B4
:102AA0000020704710B50100014806F087FB10BDFB
:102AB000C02A0020002082B002B0704710B5044840
:102AC00008F0B2FC034804F08BFA002010BDC046A9
:102AD0007D3500208129002010B5024803F03EFF1B
:102AE000002010BD4E2900200020704700207047B4
:102AF00010B501000400054808F016FC002803D1B9
:102B00002100034805F03EFC10BDC0467D35002085
:102B10000D2A002010B50100024806F0ADF8002093
:102B200010BDC046A62A002010B50B4805F014FDC4
:102B30000A4801F053F80A4805F094F9094806F0EC
:102B400099FB094803F076FF084803F041F908486B
:102B500006F02CF8002010BDA02A0020C20300209F
:102B6000002A0020C02A0020532900202C29002000
:102B7000A62A00200720704710B50C000349C000AA
:102B80000918082220000AF000F810BD9CCE0000B1
:102B900070470000962170B501261D4C89011D4823
:102BA00007F0B6F8206800F03DFC0A2003F0F4FFBF
:102BB0000A21194804F0F4F9FF21184804F056FCE2
:102BC000FF21174804F054FC164D174C2B68334274
:102BD00003D1200004F004FD2E60144B144A1C6045
:102BE000144B15481A600422144B1A70144B6032AF
:102BF0001A8001F011FA134801F00EFA802000014A
:102C000005F016FC08F026FB08F038FB70BDC04646
:102C1000C4DC0000942F0020812900208A29002094
:102C20008C2900201002002040030020942900205D
:102C3000100000204C000020A0290020520000209D
:102C400058000020982900201B4B07B5186800F099
:102C50000DFC1A4B1A4A19681268521A19498A420D
:102C600001D900221A601B68002B23D0164802F0FD
:102C700064FA002800D078200022FF2101F016FA23
:102C800001AB187002040002120E000E98705A7008
:102C90000199402000F06AFF0199302000F066FFA2
:102CA0000199422000F062FF0199062000F05EFFCA
:102CB00000F088FF07BDC046C4DC000014020020FD
:102CC000480300200F2700002C06002010B501004B
:102CD0000400204800F0DCFA002839D121001E4809
:102CE00001F062F8002833D121001C4804F064FC94
:102CF00000282DD121001A4804F010FF002827D108
:102D00002100184804F0A2FC002821D12100164817
:102D100004F06CF800281BD12100144805F04EFB8C
:102D2000002815D12100124803F05AF900280FD1CC
:102D30002100104805F008FE002809D121000E48A6
:102D400006F09AFB002803D121000C4805F0C6F8D4
:102D500010BDC04645030020C20300208E2900207C
:102D60009C29002098290020792900200D2A002084
:102D70002C290020A62A0020022B0020052A002052
:102D800010B5FFF7A3FF10BD0822014B1A80704752
:102D90000A020020F0B5394B85B00193002303905F
:102DA0000093374D0399280002F08DFD0121280082
:102DB00002F0E6FDFF21019B28001C882140FFF75F
:102DC000D0FD21122800FFF7CCFD280002F035FECF
:102DD00007000120FFF7DCF9002F4CD1284C0399A4
:102DE000200002F070FD2000022102F0C9FD254CF8
:102DF000FEB21037BE421ADA234B009A9B199B5C35
:102E00001F481900029302F0BBFD029B1F4A5C4061
:102E100008230120611020408CB2002801D05140CD
:102E20008CB2013B002BF4D10136F6B2E2E7FF2170
:102E300028002140FFF795FD21122800FFF791FDA2
:102E400000212800FFF78DFD280002F0F6FD032881
:102E500011D10238FFF79CF9402FBFD1019B0233FB
:102E60000193009B40330093B823009A1B019A42C0
:102E700097D1012000E0002005B0F0BD66DC000025
:102E8000F8260020FFFF0000E5D0000001A0FFFFB2
:102E9000F7B52B4C07000E00010020001500019330
:102EA00002F011FD0621200002F06AFDFF21200042
:102EB0002940FFF756FD29122000FFF752FDFF239E
:102EC000019920001940FFF74CFD019B20001912C9
:102ED000FFF747FD0021200002F077FD051E11D10C
:102EE0006420FFF755F903223900200002F043FD6A
:102EF000200002F0A7FD3070200002F077FC0028CF
:102F000002D1FF252800FEBD200002F09BFD070036
:102F1000200002F06BFC0028F3D0200002F092FDAC
:102F20000190200002F062FC002803D0200002F093
:102F300089FDF6E7019BFFB21B021F437780E1E7A3
:102F4000F826002073B5114C060001000322200072
:102F500002F011FD200002F049FC002803D02000FF
:102F600002F070FDF6E70A4D01AC2900094B300074
:102F70000422FFF78DFF29000422200009F005FE3E
:102F8000638820881B04184376BDC046F8260020BD
:102F90000C0000207C0B0000F0B5016885B0040037
:102FA000894800F055F9002800D0E7E021688748FB
:102FB00003F04EFE002800D0E0E02168844803F0D2
:102FC000A1FB002800D0D9E02168824803F014FC5E
:102FD000002800D0D2E021687F4800F04BFF002895
:102FE00000D0CBE021687D4804F0F4F8002800D040
:102FF000C4E021687A4804F003F8002800D0BDE05E
:103000002168784803F060FF002800D0B6E021680E
:10301000754801F06BFD002800D0AFE021687348CF
:1030200006F09CF9002800D0A8E02168704805F05F
:103030000FFA002800D0A1E025686E4E6E4A2900E4
:10304000300003F0A7FC0190002800D0A4E0092282
:103050006A49280009F0BBFE002800D09CE0093531
:103060006749280009F0A2FE002815D0654928000C
:1030700009F09CFE002848D06349280009F096FE1C
:10308000002844D06149280009F090FE002800D0B3
:1030900082E05124012501E05024019D5C4801F0AB
:1030A0009FFB03AE2000002D00D069E0FFF74AFF30
:1030B0000390C0B2FF2859D07288564B9A4255D01F
:1030C000554D2100280002F0FEFB0421280002F0EB
:1030D00057FC280002F0B1FC0700FA208000FFF73F
:1030E00057F8002F42D04D492000FFF753FE00282B
:1030F0003CD04B4B042231002000FFF7C9FE0028D2
:1031000007D06420FFF744F8F3E75124C5E75024C3
:10311000C0E705223F4B08274248511E415C4B4007
:103120000120591018408BB2002802D03E4B594064
:103130008BB2013F002FF3D13C4901328A42EAD1E0
:1031400072889A4212D12100280002F0BCFB0321B0
:10315000280002F015FC39002800FFF702FC2800C7
:1031600002F06BFC43425841C3B20193019803F053
:103170003DFC20212E4806F034FA012005B0F0BDB8
:10318000FFF7E0FE0390C0B2FF28EFD0294B708814
:10319000C018431E9841E7E72168300003F00EFC99
:1031A0000028EBD12168244802F066FF0028E5D111
:1031B0002168224805F052FA0028DFD12168204812
:1031C00008F07EF8DAE7C0464403002074290020A6
:1031D0004529002044290020C10300208629002021
:1031E000812900207929002028060020C02A0020FB
:1031F0000D2A002053290020D5CE00003DCF00002D
:1032000047CF000057CF000068CF00002BCF000051
:10321000E1030020FFFF0000F82600200C02002040
:103220007C0B0000E5D0000001A0FFFF810B000037
:10323000942F00200100FFFF2C290020A52A002048
:103240007835002007B5019001A8FFF7A5FE0EBD57
:1032500070B50B4E0B4832000D00002403F09AFBB2
:10326000A0420AD13100280009F0A0FDA04204D1FB
:103270000549064806F0ADF90134200070BDC0468E
:10328000BFD0000053290020C7D00000942F002099
:1032900010B5024803F0AAFD10BDC04679290020F0
:1032A00010B5084C200001F048FF002803D1200091
:1032B00001F04AFF10BD044802F06DF8034802F027
:1032C00019F8F7E72C0600207C0600205C06002099
:1032D00010B5084C200001F030FF002803D1200079
:1032E00001F0A4FF10BD044802F0D4F8034801F037
:1032F000F1FFF7E72C0600207C0600205C0600208A
:1033000070B5084D0400280001F017FF21000028C7
:1033100003D1280001F044FF70BD034802F083F898
:10332000FAE7C0462C0600207C06002010B50400F9
:10333000030702D5E120FFF7E3FFE30702D5E02012
:10334000FFF7DEFFA30702D5E220FFF7D9FF6307EF
:1033500002D5E620FFF7D4FFE30602D5E320FFF70E
:10336000CFFF10BD13B5030401AC2080180EFFF78A
:10337000DDFF2078FFF7C4FF13BD000070B5084DD6
:103380000400280001F0D9FE2100002803D1280004
:1033900001F023FF70BD034802F060F8FAE7C04671
:1033A0002C0600207C06002010B50A780478002343
:1033B000944205D1437848781B1A58424341DBB206
:1033C000180010BD7FB5C4B2051C134B4F2C1CD880
:1033D0006100591801AE0222300009F0D6FB01232A
:1033E00003A95B420B803000FFF7DEFF002809D005
:1033F0000A4B291C185D0A4B1B68984703041B0ED7
:1034000030707370308804B070BD19000022A03194
:10341000A1330A701A70DDE7813500206C030020AB
:1034200020000020962110B589010C4806F070FCA0
:10343000FFF79DFAFFF7E8FA094801F0BDFA00230B
:10344000FF2008499A1CA22A04D0C8540133C8544A
:103450001300F7E7044800F06DFA10BD942F002028
:10346000D4030020813500204C03002010B5FEF766
:1034700089FE064B1860FFF7FDFAFFF737FBFFF7F1
:103480000FFF01F059F9FFF74FFB10BD4803002073
:1034900073B501AE31800C040198CDB2240EFFF754
:1034A00009FB02280DD03F2322009A430AD12900AC
:1034B0002031C9B2072900D9140074700198FFF7B0
:1034C00051FF73BD372322009A43482AF9D12102C4
:1034D00049198905890D024801F0F0FEF1E7C0465F
:1034E0005C060020F0B587B0019000910025FFF741
:1034F000EFFEEEB2502D4CD0009B1B78B34236D07D
:10350000254C4F2E35D86900611803AF02223800D0
:1035100009F03BFB012304A95B420B803800FFF755
:1035200043FF002823D105A908803800FFF73CFF9E
:1035300000281CD10322311C3800FFF7B1FA022801
:1035400015D0009B1B78B3420DD10322009B5B7802
:103550001340022B15D14F2E05D86B00E4187A7852
:103560003B786270237003990198FFF791FF013552
:10357000BFE7210022000023A031A1320B7013709D
:10358000C3E74F2EEFD86B00E418FF23237063705E
:10359000E9E707B0F0BDC046813500200322F8B549
:1035A0004B78050013400C00374A022B3ED1CB78F4
:1035B0003F218B433AD1354F23783800A6781370DA
:1035C00001F0BBFD310000282CD1380001F03DFE98
:1035D00000281FD0E678A778330702D5E120FFF74F
:1035E000CDFEF30702D5E020FFF7C8FEB30702D5F2
:1035F000E220FFF7C3FE730702D5E620FFF7BEFE09
:10360000F30602D5E320FFF7B9FE3800FFF7B6FE58
:10361000FFF746FEE07800280CD0FFF787FEFFF7A3
:103620003FFE07E01A4801F0EEFED1E7137822785A
:103630009A4215D1032263781340022B06D1E17818
:10364000A378090219432800FFF722FFFFF74EFA7B
:103650002000FFF74DFA022801D0FFF721FEF8BD48
:103660000C4A4F2B09D85B00D31858783F2302002F
:103670009A43DFD1FFF75AFEDCE713000021A033A5
:10368000A13219701170F0E71D0000202C060020F7
:103690007C06002081350020F0B5CBB287B0050054
:1036A000009101924F2B0CD86B4603225B7813409C
:1036B0006A46941C012B48D16B461878FFF782FEAE
:1036C00020806846FFF75CFB040002283BD06B4675
:1036D0001B784F2B0BD84E4A5B009B186A46032180
:1036E00052780A40012A3AD1FE321A705A70002CE0
:1036F00029D16B4602AE3100981C3480FFF754FE8E
:10370000002820D16B4603A90C80981CFFF74CFEC3
:10371000002818D101276B4604A97F420F80981C0E
:10372000FFF742FE00280ED16B4605A90F80981CBA
:10373000FFF73AFE002806D16B46DB78442B14D104
:10374000684600F089F907B0F0BD012305A95B4286
:103750000B802000FFF728FE0028ADD1B1E76946B5
:103760006A468978D2781970C0E730229343412B9A
:1037700014D16B469C785B782D3A1340254D022B73
:1037800005D12100244801F0D3FE6C71DBE76B7991
:10379000A342D8D1204801F0C7FED4E769462800EB
:1037A000FFF7A0FE6B465A781978981CFFF778F956
:1037B0000228C8D00028C6D16B463100981C34803E
:1037C000FFF7F2FD0028BED1002303A90B806B4652
:1037D000981CFFF7E9FD0028B5D101246B4604A928
:1037E00064420C80981CFFF7DFFD0028ABD16B46CC
:1037F00005A90C80981CFFF7D7FD0028A3D128004D
:103800006946FFF7CBFE6846FFF784F99BE7C046A1
:1038100081350020D4030020C8060020F0B5CCB2CA
:1038200085B00700009101924F2C1ED86B460322F1
:103830005B7813405A1E012A17D86A4603AE951CBE
:10384000012B14D1164B64001C1921000222280000
:1038500009F09BF90023310028003380FFF7A4FD15
:10386000002811D0FF232370637005B0F0BD012341
:1038700031005B4228003380FFF796FD002803D01B
:10388000201CFFF79FFD28806846FFF70BF90028F2
:10389000EBD10099019A3800FFF7FEFEE5E7C0463C
:1038A0008135002050235843C9B2411806484900C9
:1038B000091808784A78AF33184013401B0282B0C9
:1038C000184302B07047C0467FCF0000F0B5154ED8
:1038D00085B050220021300009F073F90025EBB2C9
:1038E0000193502D1CD0104A104B1478013C1C1928
:1038F000013B0093009B9C4210D06A4627780C4BFA
:1039000011791B683800984703AB1880C0B2FF28B4
:1039100003D15B78013CFF2BECD077550135DEE716
:1039200005B0F0BD6C0300201E0000204D030020F8
:103930002000002010B5FFF7C9FF10BD10B5074BE0
:1039400001221B7898429B411840054B1A70054B89
:103950001870FFF7BBFFFFF7B1F810BD1C00002087
:103960001E0000204D03002010B5084B08491A78AE
:103970000023934205DACC56844204D001335BB273
:10398000F7E7002010BD0120FCE7C0461E00002024
:103990004D03002010B50A4B04001B7883420DD95B
:1039A000FFF7E2FF002809D1064A1378591C11706D
:1039B000054AD454FFF78AFFFFF780F810BDC046D0
:1039C0001C0000201E0000204D030020F8B505005B
:1039D000FFF7CAFF002807D00E4E002034780E4FA4
:1039E000012C06D8FFF7AAFFF8BDCBB208009C4215
:1039F0000AD9C357411CAB42F7D1221A791838189B
:103A0000013C09F0CBF83470FFF760FFFFF756F880
:103A1000EAE7C0461E0000204D03002010B5054B0C
:103A20001A78054B9B18013B18780130C0B2FFF79C
:103A3000B1FF10BD1E0000204D03002010B5044B47
:103A40001A78044B9B18013B1878FFF7BFFF10BD95
:103A50001E0000204D030020032270B543788478B7
:103A60001340532C07D9022B04D120005438C0B284
:103A7000FFF764FF70BD292C2DD925002A3DEDB23A
:103A8000212D06D0222D09D1022B04D1FFF7C6FF2C
:103A9000F0E7022BFAD1FFF7D1FFEBE70022022B70
:103AA00010D01249023053181E78A64203D15E7816
:103AB00043789E42DED00232A02AF4D12800FFF7DC
:103AC00085FFD7E72800FFF74FFF0028D2D1280055
:103AD000FFF760FFCEE7022BCCD12000FFF744FFB9
:103AE000002801D02000EAE72000F1E7813500201E
:103AF00070B50A4D040001222800002106F04CF8A0
:103B0000012220700021280006F046F80122607092
:103B10000021280006F040F8A07070BD942F00200E
:103B200010B5012204000021024806F035F820708B
:103B300010BDC046942F002010B5054C01000A228C
:103B4000200005F0B8FD2021200005F04AFD10BD41
:103B5000942F00201FB50A1C03AB090C1A80997022
:103B6000039900F057FC05B000BD00001FB50B0025
:103B70000C1C1B0A090CC2B2E4B2DBB2C9B2FF20B2
:103B80004F2A01D80448805C03AA147053709170C6
:103B9000039900F03FFC1FBD25DE000007B500F0D3
:103BA000ADFC020401AB120E18705A701B88FF2185
:103BB0001A00000C1B0A0A401B02084000041343B1
:103BC00018430EBD044B10B51B78002B03D0FEF735
:103BD0008BFF00F0F1FB10BD25000020104B70B5ED
:103BE0001B78002B19D00F4B0F4C1B6822880F4DF0
:103BF0009B1A2A789BB29A420FD80D4B1B782B70D8
:103C0000FFF7E0FF22882B789B182380094B186868
:103C1000002802D003689B689847002070BDC0460A
:103C20002500002048030020CA03002024000020B3
:103C3000CC030020C40300200121044A0448136877
:103C40000B4001D1037011607047C046BC030020D7
:103C5000C003002013B500240190FFF7EDFF200002
:103C600001340199E4B2FFF775FF842CF7D113BD3D
:103C700007B5002201AB1A809A700198FFF7EAFF9E
:103C8000034B1868002802D003685B68984707BD9B
:103C9000C403002010B5094B1B7883420DD9084B93
:103CA000187000F035FA074B1860074B1B78002B93
:103CB00001D0FFF7DDFFFEF70FFF10BDC8030020A6
:103CC00026000020C40300202500002010B5064B6C
:103CD00018780130C0B21870044B1B78834200D8AA
:103CE0000020FFF7D7FF10BD26000020C8030020EA
:103CF00010B5064B1A78002A01D1054A1278013A0C
:103D00001A701878FFF7C6FF10BDC04626000020C5
:103D1000C803002037B505000024094B1B78A342D7
:103D200009D969462000FEF727FF009B9D4203D179
:103D30002000FFF7AFFF37BD0134E4B2EDE7C04626
:103D4000C8030020012210B5034B1A70FFF790FF43
:103D500000F032FB10BDC0462500002013B5002442
:103D600001AB1C809C700198FFF774FFFEF710FFF9
:103D7000044B1B78FF2B02D12000FFF78BFF0020A4
:103D800016BDC0462600002013B5002401AB1C80E0
:103D90009C700198FFF75EFF00F00EFB014B1C705A
:103DA00013BDC04625000020F8B5CB780024432B76
:103DB00035D103224B7801341340022B2FD18B785D
:103DC000002B0AD0A34208D0022B28D1194B1B7814
:103DD000002B2BD0FFF7D8FF21E000223F2504263F
:103DE000082715495018017840780400AC430BD1DE
:103DF0002034A4468C446446E4B2072C04D8B14372
:103E0000E1290ED038420CD10232A02AE9D1002299
:103E100059424B41934206D0FFF758FF012420003E
:103E2000F8BD0122F4E7FFF763FFF7E7FFF78AFF2A
:103E3000F5E7C046250000208135002010B5FEF7CB
:103E400099FE034B1870034B1A78034B1A7010BD80
:103E5000C803002024000020CC03002010B5044833
:103E600005F0EAFE0A3843425841C0B210BDC046D0
:103E7000942F002073B55E4A5E480D00002402F0C6
:103E800089FD0600A0426AD104225B49280008F09F
:103E90009EFF3400002862D104355849280008F0FC
:103EA00085FF002811D16B46DD1C2800FFF738FE86
:103EB000FFF7D4FF01AC002853D12000FFF718FE14
:103EC00028780199FFF746FE48E04D49280008F0A0
:103ED0006DFF00283CD04B49280008F067FF002800
:103EE0002DD04949280008F061FF061E11D047492E
:103EF000280008F05BFF002831D1FFF7AFFF002852
:103F000044D101AC2000FFF70BFE207800F01AFA34
:103F100024E0FFF7A3FF041E4DD1FFF78DFEFFF74E
:103F20009DFF00281AD101A8FFF7E2FD200001340F
:103F30000199E4B2FFF70EFE842CF0D10EE0344874
:103F400005F07AFEC0B20A2823D1324B18781AE065
:103F500001A8FFF7CDFD0198FFF77CFE01242000AA
:103F600076BD2878FFF71AFE050403021B0E2D0EFE
:103F70002070A37065701C00C0B2FFF7DDFD280043
:103F8000FFF7DAFD2000FFF7D7FDE7E700F0ECF9D7
:103F9000F9E76E2802D1FFF799FEDFE7702802D11A
:103FA000FFF7A6FEDAE701AC2000FFF7B9FD2078A5
:103FB000FFF770FED2E7FFF73FFE34002000FFF767
:103FC000EDFD01AB060405021870360E2D0EC0B2D1
:103FD0005E709D700134FFF7AFFD3000FFF7ACFD60
:103FE000E4B22800FFF7A8FD842CE7D1B6E7C0466D
:103FF000C8DC000053290020FCDC000001DD0000CB
:1040000004DD00000BDD0000F6DC000010DD000028
:10401000942F00202600002010B5FFF77BFE10BD76
:10402000F7B5D4B201AE00290AD134707470B470FF
:1040300072783078B37812021B0410431843FEBD27
:1040400006234343181205025B1BFF279BB21D008A
:10405000FB1A4D434B432D121B12791A7D1BFB1A81
:10406000554353434A432D1212121B12D2B2E9B2E6
:10407000042806D807F00CFC03090D1216001100E5
:10408000DAB234707270B170D2E711002200ECB273
:10409000F7E7D9B2230014001A00F2E72100140058
:1040A000EAB2EEE72100DCB2EBE70000164B1201AA
:1040B0001B6813B59BB29A181211D3B2120601D520
:1040C000DB43DBB25B00DBB21A0003245A4312125B
:1040D000534354431B125B00E31ADA0FD2185210F9
:1040E0005032D2B289B280B2FFF79AFFFF210300AB
:1040F000020A0A400B4012021343000C034A084014
:1041000013400004184316BD48030020FFFF00FFC2
:1041100037B50C4B05001A780B4C824201D1206850
:104120003EBD69461870FEF727FD019B002B02D1AA
:10413000009B2360F3E72A00009904489847206019
:10414000EDE7C04627000020D00300201802002021
:104150000022014B5A717047D403002010B5084C5F
:10416000200000F0EAFF002803D1200000F0ECFF5F
:1041700010BD044801F00FF9034801F0BBF8F7E760
:104180002C0600207C0600205C06002070B5074E3F
:104190000D0004000100300001F01EFA611C2870BF
:1041A000300001F019FA6870280070BDDC060020AC
:1041B00010B5064801F041F8054801F071F90548CD
:1041C00001F0B6F8044801F0ABF910BD2C06002050
:1041D0007C0600205C060020C806002010B5084CB4
:1041E000200000F0AAFF002803D1200001F01EF8F3
:1041F00010BD044801F04EF9034801F06BF8F7E7F1
:104200002C0600207C0600205C0600201FB501ABB8
:10421000188003231340013B012B10D80948037871
:1042200001335BB2037002A8427001225242017056
:10423000428003710299039A0348FFF7EFFA05B031
:1042400000BDC046803500204603002010B50400A4
:1042500001000120FEF758FA014B1C7010BDC0464A
:10426000E3030020C3430A49DBB2D93110B50B7018
:104270000849094CD9310B70084B02001870084BE3
:104280002000198801F0C8F9200001F0C9F910BD1B
:10429000F0030020E8040020DC0600202A000020B3
:1042A000E603002073B5204D204C2978200000F053
:1042B00031FD29781E4D280000F02CFD1D4B2200F9
:1042C0001B78D932DB43DBB213702A00D93213706A
:1042D000200000F07FFD06002800F6B200F07AFD15
:1042E000154B012E03D0C0B20022012800D10122BB
:1042F0001A70220000233932137022003A321370F0
:104300000E4A3B34127823709A420CD001AA1380D3
:1043100093700198FFF79EFC094B1868002802D0A3
:1043200003685B68984773BD28000020F0030020F5
:10433000E80400202A000020E803002025000020D7
:10434000C403002010B5FFF78DFF002301220448AD
:1043500004491A545A540133092BFAD110BDC046EE
:10436000E0050020E9050020014B18787047C046A1
:104370002A00002070B580240D4E0E4D3378640065
:10438000E95C0320611A09020139FEF787F87378A6
:104390000520E95C611A09020139FEF77FF8B3785C
:1043A0000420E95C611A09020139FEF777F870BD53
:1043B000F305002075DE000070B50024104DE6B254
:1043C000635D002B05D031000E4800F03FFD002357
:1043D00063550D4D635D002B05D031000B4800F097
:1043E00035FD002363550134092CE7D1084C2378AF
:1043F000002B03D0FFF7BEFF0023237070BDC04623
:10440000E0050020F0030020E9050020E80400207A
:10441000F2050020F7B501AB0191832818D81C786C
:1044200059789A78832814D12C4801230578A5421D
:1044300007D145788D4204D183789B1A5D1EAB412C
:10444000DBB2274D04702E78417033432B7082709D
:10445000F7BD244B1D7885235D43234B5B191B5C03
:10446000472B1BD803255D432048214E2D18287863
:10447000DB0884466F78A8782C706970AA70F55CA8
:1044800000950125644505D1B94203D1121A501E89
:104490008241D5B2009A1543F554D9E78F2BD7D86E
:1044A0000320483B5843134DDB10401905784778EB
:1044B000AC46114D8678047041708270E85C0090C3
:1044C0000120644505D1B94203D1921B561EB24169
:1044D000D0B2009A1043E854BAE7C046F305002072
:1044E000F2050020E80300201BDD0000F00300209F
:1044F000E0050020E8040020E905002013B501AC28
:1045000083280AD900232380A37062782078A378B7
:1045100012021B041043184316BD0C4B1A78852356
:104520005A430B4B9B18195C472907D80322514368
:10453000084B5918200008F028FBE6E78F29E1D83E
:10454000032248395143044BF3E7C046E8030020F7
:104550001BDD0000F0030020E8040020012110B55D
:104560000800FEF785F80020FFF770FE1020FDF729
:104570005DFFFFF7FFFE0A20FDF70AFE0120FFF7AF
:1045800065FEFA204000FDF703FE10BDF7B5394F78
:1045900008223900384808F0F8FA384C082221007F
:1045A000374808F0F2FA374E300000F018FC0028C7
:1045B00012D03100684600F041FC082269463800FC
:1045C00008F0E3FA304B1B78012B05D1FA7802335F
:1045D0001A4201D05340FB702C4D280000F0FFFB25
:1045E000002816D02900684600F028FC08226946F9
:1045F000200008F0CAFA244B1B78012B09D16278FD
:10460000A17810004840184203D05A404B406270D5
:10461000A3703300D8331B78002B03D01C4B1B78BE
:10462000002B08D02B00D8331B78002B05D0194B5A
:104630001B78002B01D1FFF735FED8363278002ADF
:1046400007D1134B1B78002B03D0002000213860CA
:104650007960D8352B78002B07D10E4909780029CD
:1046600003D0002000212060616009490A70094AD6
:104670001370F7BDF805002018060020080600207A
:1046800020060020F0030020E8030020E8040020BA
:104690000006002010060020F0B5002685B0002599
:1046A0007300DBB20193204B77193A001868596800
:1046B00007F06EFA022344001C401C4B3A001868B5
:1046C000596807F065FA01220240224307D0002111
:1046D00003AB1980019B03985919FFF797FD144B01
:1046E0003A001868596807F053FA022344001C4046
:1046F000104B3A001868596807F04AFA0122024044
:10470000224308D0002103AB1980019903980F318F
:10471000491BFFF77BFD0135082DC4D10836282E33
:10472000BDD105B0F0BDC046F80500201806002038
:10473000080600202006002010B5FFF727FFFFF72E
:10474000ABFF10BDC0B202000F2300091A40072AB8
:1047500006D905499B1A085C184101231840704787
:10476000024B185C1041F8E708060020F80500200D
:1047700010B5074B1868596807F050FA054B04004C
:104780001868596807F04AFA2018C0B210BDC04630
:10479000F80500200806002070B50024064B012112
:1047A000E55C01342800FDF763FF00212800FDF7D8
:1047B000ABFF262CF2D170BD75DF00000022002374
:1047C00010B505490A604B6004490A604B60FFF769
:1047D00005FDFFF7C3FC10BDF8050020080600200A
:1047E00010B5134C200001F069F80020FFF72EFDF2
:1047F00001211520FDF73CFF01211420FDF738FFB2
:1048000000211520FDF780FF00211420FDF77CFF1B
:10481000FFF7D4FF0120FFF719FD200001F020F879
:104820000449200001F03CF86420FDF7B1FC10BD04
:10483000F8260020A0860100014B18787047C0467A
:10484000E3030020481E814110B5C8B2FFF7FEFC0B
:1048500010BD000010B5024800F0ADFAC0B210BDA6
:10486000F003002010B5024800F0A5FAC0B210BD58
:10487000E8040020014BE43318787047F00300206F
:10488000014BE43318787047E804002010B5024863
:1048900000F096FAC0B210BDF003002010B5024837
:1048A00000F08EFAC0B210BDE804002010B5024836
:1048B00000F08BFAC0B210BDF003002010B5024822
:1048C00000F083FAC0B210BDE804002010B50C005F
:1048D000034800F029FA2100024800F025FA10BD33
:1048E000E8040020F0030020024B1878013843420E
:1048F00058417047E803002010B5024800F01FFA45
:10490000C0B210BDE8040020014B18887047C046B3
:104910002800002070B5150006000C00127800F089
:104920007BFE30006A78611C00F076FE280070BDC6
:10493000F7B5022001F006FE194E3080012001F08B
:1049400001FE6B46174D9C1D288021003088FFF723
:104950001DFC2288144B154F154C9A4207D1318803
:104960003A002000FFF7D6FF200000F059FE308803
:104970003900FFF70BFC2988200000F02DFE0D4EBA
:10498000FF2807D120003278298800F045FE20005A
:1049900000F046FE2988200000F01EFE3070F7BDB2
:1049A000E4030020E6030020FFFF000028000020B1
:1049B000DC0600202A00002010B5FFF7B9FFFFF742
:1049C000EBFEFFF7CBFDFFF7F3FBFFF7E5FEFFF78D
:1049D000C5FD054C200000F043FF0449200000F015
:1049E0005FFFFFF75FFC10BDF8260020400D0300BD
:1049F00070B50400C5B22900094800F08BF9290000
:104A0000084800F087F9084A084B1480084C1988B8
:104A10002000FFF77FFF200000F002FE70BDC046BF
:104A2000F0030020E804002028000020E403002018
:104A3000DC06002010B50800FFF7DAFF10BD00000B
:104A4000144A00231100D8310B701100D9310B70BA
:104A50001100DC310B6011005820E03108601100BA
:104A6000F03213700C4AE4310B701100D8310B7026
:104A70001100D9310B7011005738DC31086011007A
:104A80005830E03108601100F032E4310B701370DF
:104A90007047C046F0030020E804002010B5012252
:104AA00004000021024805F077F8207010BDC046D0
:104AB000942F002010B5054C0100200004F08DFD5E
:104AC0002021200004F08DFD10BDC046942F002051
:104AD00010B5054C01000A22200004F0ECFD202155
:104AE000200004F07EFD10BD942F002073B5734AA2
:104AF00073480D00002401F04DFFA04211D109229E
:104B00007049280008F063F9A0420AD109356E49BE
:104B1000280008F04BF9A04205D16C48FFF7CAFF06
:104B20000124200076BD6A49280008F03FF90028DA
:104B300001D16848F2E76849280008F037F90028F1
:104B400015D1664805F078F8654C0A2805D1200093
:104B5000FFF772FEFFF7BCFFE2E76B46DD1D2800A2
:104B6000FFF79CFF29782000FFF76CFED8E75D492E
:104B7000280008F01BF900280FD15B48FFF79AFFC7
:104B8000574C2000FFF766FEFFF7A2FF5748FFF7DC
:104B900091FF2000FFF766FEDCE75549280008F08A
:104BA00005F900280FD15048FFF784FF4C4C200036
:104BB000FFF760FEFFF78CFF4C48FFF77BFF2000FC
:104BC000FFF75EFEC6E74B49280008F0EFF8002823
:104BD0000FD14548FFF76EFF414C2000FFF756FE0E
:104BE000FFF776FF4148FFF765FF2000FFF756FE0D
:104BF000B0E74149280008F0D9F800281ED137480D
:104C000005F01AF8364C0A280ED13748FFF752FF44
:104C10002000FFF74BFEFFF75BFF3448FFF74AFF2A
:104C20002000FFF74BFE95E76B46DD1D2800FFF7E0
:104C300035FF29782000FFF749FE71E72F4928004A
:104C400008F0B4F8002808D12D48FFF74DFE2D4B91
:104C5000012800D02C4B180060E72C49280008F0F0
:104C6000A5F8002803D12648FFF746FE72E7284939
:104C7000280008F09BF80024A04200D051E7174C10
:104C8000200004F0D9FF1E4D06000A280CD1280090
:104C9000FFF73AFE32000100200004F0FCFC202166
:104CA000200004F09EFC3BE76B46DC1D2000FFF774
:104CB000F5FE21782800FFF7BDFE31E7A4DF0000F4
:104CC000532900203DCF0000BFD0000059E0000074
:104CD00050E0000065E000006FE00000942F00202D
:104CE000E10300207AE0000083E0000089E000009A
:104CF00091E000009CE00000A5E00000B2E00000B0
:104D0000E20300209BDF0000A0DF0000B9E000000C
:104D1000BFE0000007B5022201AB5970E030190076
:104D20001A7000F0C7F80EBD07B50D2201AB1A705E
:104D30005970E0300B3A190000F0BCF80EBD37B5E1
:104D40000B236A46E030137069460122040000F02C
:104D5000B1F8002802D0012040423EBDA0239B00B4
:104D6000013BFDD101AD02222900200000F0E4F852
:104D70000228F0D168782B780002C018EDE737B52B
:104D80006B46E030197001226946040000F092F889
:104D9000002802D0012040423EBDA0239B00013BE1
:104DA000FDD101AD01222900200000F0C5F8002846
:104DB000F0D02878F0E710B50121FFF7E0FF10BD33
:104DC00010B50821FFF7DBFF10BD10B50D21FFF76F
:104DD000D6FF10BD10B50C21FFF7D1FF10BD13B5E4
:104DE000040006220021684607F0EBFE20000622A0
:104DF000E030694600F0A0F8831F5A425341220078
:104E0000D83213700023062816D16A461278012A78
:104E100012D1694623004978E833197069468978C8
:104E2000EC3459706946C978997069460979D97026
:104E30006B465B7923701300180016BD10B5040093
:104E4000E831082207F0A1FE200010BD0B00F0B5EC
:104E50008BB0803B03AF3B700300D9331B78050058
:104E60000093182301244B430193019B0099E318FD
:104E7000013BEB5C0022994201D25B1ADAB20C4B87
:104E800003219E5C20003E5506F07CFE012903D1E3
:104E9000192E01D91A3E3E550134192CE5D12800AE
:104EA00022003900E03000F005F80BB0F0BDC0463C
:104EB000C7E00000F7B51E4C0E0001682000C9B223
:104EC000170000F000FD00211A4B0A00FF25181200
:104ED0002A40974210D9725C01315A4052B2D3B283
:104EE0001B015A40D2B213119C466546D3001202F0
:104EF0006B4010434340E8E701AD28703A003100B1
:104F000020006B7000F052FC002801D10120FEBD92
:104F100002222900200000F049FC0028F6D00121DF
:104F2000200000F052FD431E9841C0B2EFE7C0469A
:104F3000F8260020FFFF0000F7B50368204D0700AA
:104F400001911400D9B202320123280000F0D3FCF1
:104F5000002834D00026FF2328003340A34205D286
:104F600000F070FD019B98550136F4E700F06AFDF2
:104F70000600280000F066FD3602301883B29C4619
:104F80000021FF260F4A0B0033409C4210D9019BA1
:104F90005B5C013153405BB2D8B200014340DBB2ED
:104FA0001D11D80012121B0268401A434240EAE762
:104FB000E0B2624503D000203B7901333B71FEBD76
:104FC000F8260020FFFF00000379413301200B7019
:104FD0007047000030B50B7889B001330B706B4619
:104FE000050011220021981D07F0EBFD124B01ACCA
:104FF0002380124A124BE28102933F22092322743A
:105000006372104A1833A372203BE37223736282E7
:10501000237603222B796275A37080233D32E282CE
:105020006A795B421343210019220020237500F0A6
:105030009BFA09B030BDC0460904000001220000FF
:1050400001030101070500000A78030010B50020E4
:10505000812A0ED1CA78222A0BD189881A799142E5
:1050600007D11A001B7C2832137002493F2200F03E
:105070007BFA10BDC7E1000070B504798A8803008F
:105080000020944209D10C784A78A12C06D1022341
:10509000013AD2B293424041C0B270BD212CFCD142
:1050A0000B2A04D18A7828331A700120F5E70A2ADE
:1050B00002D129331870F8E7092AEED1CD78CC88CF
:1050C000022D08D1012CE8D12A331900220008480A
:1050D00005F0CAFAE9E7012DDFD1082CDDD1113343
:1050E00019002200024805F0BFFA2800D5E7C046A3
:1050F000BC2F00200223FF3310B5C38003002433EC
:1051000083600B4B00220833036003002833C26026
:105110000174197001219A7059708323040043624D
:1051200004F07CFE210004F04DFE200010BDC046BE
:1051300008E200002A300078704728300078704775
:105140002830017070470000F8B5060004001936D9
:105150001134050008222100300007F007FD002867
:1051600016D06979082322000B4805F031FB0B4B60
:1051700005001F68002F04D0030008222100022030
:10518000B84708222100300007F0FFFC2800F8BDD6
:1051900001256D42FAE7C046BC2F002048360020AA
:1051A0000A002032D2B210B50023072A08D80133F2
:1051B0001A00E0398A40417C0A43427401200BE026
:1051C000C218D47C8C42F9D0002C01D1D174F5E7FF
:1051D0000133062BF4D1002010BD0B002033DBB2CD
:1051E00070B5072B07D80122E0398A40437C9343EE
:1051F0004374012070BD0200040013321300002527
:1052000019341E788E4200D11D700133A342F8D1AB
:1052100000211578002D05D04418E67C0131E57495
:10522000C9B2167001329A42F3D1E2E710B51130DB
:105230000822002107F0C5FC10BD10B50400FFF7DF
:10524000F5FF2000FFF780FF10BD03001930133376
:105250001A788A4204D001338342F9D10020704782
:105260000120FCE70121054B10B51A680A4203D161
:1052700003481960FFF73EFF10BDC04658060020E6
:105280002C06002001210A4A70B5136805000B4066
:10529000084C05D12360084B1160636019232381FA
:1052A00006F0C2F9210006F067F9280070BDC0467B
:1052B0006C0600207006002020E20000002310B5DC
:1052C0005A00845A002C01D1115210BD0133042B15
:1052D000F6D1FAE710B50822002107F072FC10BDE4
:1052E00010B5040006F0A0F908232200042106F0FE
:1052F00069F910BD70B505000835040001000822E9
:10530000280007F033FC002807D02000FFF7E8FF53
:1053100008222100280007F038FC70BD10B50400F9
:105320000822002107F04DFC2000FFF7E3FF10BD2D
:1053300010B5FFF7F3FF10BD10B50248FFF7A2FF4D
:1053400010BDC0465C06002001210A4A70B51368F2
:1053500005000B40084C05D12360084B11606360C9
:105360004123238106F060F9210006F005F92800A9
:1053700070BDC046B8060020BC06002039E200001F
:1053800010B5040006F050F922001D231D3208213B
:1053900006F018F910BDF7B50678437F0400451CE8
:1053A000B3421BD002002B0000211D3201921D20B0
:1053B000002218569A560700974302D00121024056
:1053C0005A77019A01339342F1D1002902D020008B
:1053D000FFF7D6FF66772000FFF7D2FF26001E36C4
:1053E0001C222900300007F0C1FB002808D01C2235
:1053F0002900300007F0C9FB2000FFF7C1FFFEBD08
:1054000001204042FBE70023DD290AD8CB08C01861
:1054100007231940063B8B4040780340581E8341C8
:10542000DBB2180070470200DD290AD8CB08C31888
:1054300007220120114002008A4059780A435A701D
:1054400070472031C9B200200729F9D8012318007C
:1054500088401178014311701800F1E70200DD293E
:105460000BD8CB08C31807220120114002008A4044
:1054700011005A788A435A7070472031C9B200200F
:105480000729F9D801231800884011788143117049
:105490001800F1E710B51D22002107F092FB10BDA6
:1054A00010B50400FFF7F6FF2000FFF769FF10BDFD
:1054B00010B50248FFF748FF10BDC0467C0600202B
:1054C00001210A4A70B5136805000B40084C05D14C
:1054D0002360084B116063601823238106F0A4F851
:1054E000210006F049F8280070BDC046CC06002017
:1054F000D00600207AE2000070B515000C0006F01E
:1055000093F82B002200052106F05CF870BD07B56A
:105510006B46D91D002301220B70FFF7EDFF07BD7D
:1055200010B5FFF7F4FF10BD10B5FFF7F0FF10BD89
:1055300007B56B4607331970832905D10223054A45
:1055400011890B43138107BD01221900FFF7D4FF16
:10555000F9E7C0460050004110B50248FFF7B0FF20
:1055600010BDC046C806002010B5024805F0DCF9A1
:1055700010BDC046BC2F002010B50100014805F049
:10558000E3FA10BDBC2F002070B50F4C0F4EA544A0
:1055900004000F4801AA43690169651C00F0FEF888
:1055A000320001A9280007F0F0FAA35D002B05D115
:1055B0008022FF219201280007F003FB01232370C2
:1055C000044B9D4470BDC046F8DFFFFF0120000082
:1055D000E02600200820000070B5037804000D00CC
:1055E000002B01D1FFF7D0FF6419607870BD000077
:1055F000037870B505000C001600002B01D1FFF7F1
:10560000C3FF2C196378B34203D00122014BEA5443
:10561000667070BD0220000010B5FFF7E9FF10BDF5
:1056200010B5114C0378A5440400002B01D1FFF7FD
:10563000ABFF0E4BE35C002B12D001230C4AE118A8
:10564000A35401A807F0A1FA0A4C6269216920005D
:1056500000F092F8636901AA2169200000F03CF88B
:10566000054B9D4410BDC046F8DFFFFF022000003F
:1056700001200000E02600200820000010B5054AA7
:105680000549064800F010F80022054B05491A703C
:105690005A5410BD0120000000E30000E026002065
:1056A000DC0600200220000030B5094D094CAB6833
:1056B0005B035B0F9B001C590460AB6801619BB2EC
:1056C00043606343A4008360C460426130BDC04650
:1056D0000040004100040100F7B580261A4D0191F9
:1056E0006F6803333E439B086E60002B2BD0174E30
:1056F0002E802E7DF107FCD51E000768991BBF0880
:105700008F4219D9002E17D0FF2117788C433C43C4
:105710000F4957780C403F023C439778013E3904CB
:105720000C4F2740D478BFB20F43240601993C4365
:1057300010C101910432E0E7074B2B802B7DDB0782
:10574000FCD53300D1E7F7BD0040004144A5FFFF81
:10575000FF00FFFFFFFF00FF04A5FFFF044B054A0A
:105760004908D9611A801A7DD207FCD57047C04616
:105770000040004102A5FFFF70B504000D001600B7
:10578000E36829002000B34205D2FFF7E7FFE36892
:10579000ED18F61AF4E7FFF7E1FF70BD10B5100041
:1057A0001A0007F0F2F910BD00207047F8B50500A7
:1057B0000E0017000024BC4208D02B68315D1B6826
:1057C00028009847002801D00134F4E72000F8BDF4
:1057D00070470300FC33196ADA69914203D01B6AEF
:1057E000C018007E704701204042FBE70300FC33F5
:1057F000D8691B6AC01A01D50130FF30704700001C
:10580000F7B50193FA238026002504009B008360EE
:10581000124B760008330F004560290000920360A8
:105820003200183007F0CDF923002000FC3321307E
:10583000DD6132001D622900FF3007F0C2F98723C5
:105840009B00E3185D609D606B461B7827612375A4
:105850006B461B79A57520006375FEBD2004010011
:1058600070B5060018250C49006904F02BF9306961
:1058700003F0B8FF2B000821307D084C4343E318A8
:105880005956FCF76DFF0821707D45436419615638
:10589000FCF766FF70BDC046A0860100B408010099
:1058A00070B504000D00006903F0B1FF2900206904
:1058B00004F008F9206903F095FF70BD10B5006988
:1058C00003F0A5FF10BD8A2300229B00C1540C3BAE
:1058D000C3185A609A60012383757047020010B59F
:1058E000FC32536894680133DBB29C4202D05468A6
:1058F0000155536010BDF7B5002405001700019352
:105900002000A24232D02B00FC33DC611C62012259
:10591000286903F0AFFF0600A04226D02B00183301
:105920000093286904F033F8013401000098FFF770
:10593000D5FF2869BC420CD004F007F8002807D036
:10594000286903F077FF0221286903F07DFFE8E76B
:105950000600286903F065FF019B002B07D0002E8D
:1059600007D00321286903F06FFFE0B2FEBD002ECF
:10597000FBD1013CF9E710B50123FFF7BCFF10BDD7
:10598000002210B5837D93420DD087239B00C4185D
:105990006368A4680133DBB2A34204D02130FF3036
:1059A000FFF79CFF0122100010BD0300FC33996833
:1059B0005A68914206D09A68805C9A680132D2B2E5
:1059C0009A60704701204042FBE700228A2370B5AD
:1059D0009B00827505000E00C15C006903F04AFF60
:1059E000002806D10321286903F02EFF022420009D
:1059F00070BD872328009B00EA1853689468213003
:105A0000FF301C1B01D50134FF34002C0ED02C6953
:105A1000FFF7CBFFC1B2200003F06EFF0028E8D1F2
:105A20000321286903F010FF0324E0E7002EDED0F5
:105A30000321286903F008FFD9E710B50121FFF71A
:105A4000C4FF10BD10B51830FFF7AFFF10BD70B523
:105A50000400006903F070FF002814D0206903F0EF
:105A600082FF002810D0206903F0E4FE03212069A2
:105A700003F0EAFE8C239B00E558002D39D100236A
:105A8000FC34E361236270BD206903F076FF0028D7
:105A900009D0206903F06CFF002804D0206903F0CE
:105AA00071FF0028DFD0206903F067FF002826D1AE
:105AB000206903F053FF0028E5D0206903F062FF5E
:105AC000002837D087239B00E218536892689B1AFE
:105AD00001D50133FF33FF21002B05D020002130F9
:105AE000FF30FFF762FFC1B2206903F017FFA07516
:105AF000C9E7236820001B699847A847BFE72069CA
:105B000003F098FE2069032103F09EFE206903F054
:105B100039FF0028B7D0872300229B00E3185A6082
:105B20009A600123A3758B239B00E3589342AAD06C
:105B30009847A8E72200FC32D369126A0133DBB22E
:105B40002069934206D103F06CFE0321206903F023
:105B50007BFE98E703F01BFF010020001830FFF7E1
:105B6000BDFE206903F066FEEFE7000010B50248B5
:105B7000FFF76DFF10BDC046F826002010B51523B5
:105B8000142202490248FFF73BFE10BD882F002077
:105B9000F826002010B5012204000021024803F07D
:105BA000FBFF207010BDC046942F002010B5054C9F
:105BB00001000A22200003F06EFD2021200003F0E6
:105BC00010FD10BD942F002010B50A0001000248FE
:105BD000FFF70EFD10BDC046DC06002010B5054CD9
:105BE00001000A22200003F066FD2021200003F0BE
:105BF000F8FC10BD942F002010B50248FFF710FDEF
:105C000010BDC046DC06002010B50C0001000348A2
:105C1000FFF7E2FC2070200010BDC046DC0600202B
:105C200070B5074E0D00040001003000FFF7D4FCF2
:105C3000611C28703000FFF7CFFC6870280070BD31
:105C4000DC06002010B5054C0549200003F0C1FC1E
:105C50000A21200003F0C5FC002010BD942F002075
:105C600044040100F0B54E4885B005F04DFD00221A
:105C70004C4B02AD988AD98A1A761B692A701B6828
:105C80006880A980AA7129000832474898470A20ED
:105C900000F058FC454C69462080FFF7B5FF6B4685
:105CA0001A78434BFF2A51D01A70208801AE013078
:105CB000310080B2FFF7B4FF32883E4E3E4BB24215
:105CC00049D01A806B4620885F1C033080B23900AF
:105CD000FFF79AFF3A78394BFF2A42D01A706B4689
:105CE00020889F1D043080B23900FFF799FF3A8861
:105CF000334BB2423BD01A806B4620889F1C063043
:105D000080B23900FFF780FF3A782E4BFF2A34D05B
:105D10001A7020882900073080B2FFF781FF2A8897
:105D2000294BB2422FD01A806B462088DD1C0930E7
:105D300080B22900FFF768FF6B461A78234BFF2AD1
:105D400027D02A781A70002005B0F0BD1978208875
:105D5000FFF73AFFA9E7208819780130FFF734FFF1
:105D6000B0E7208819780330FFF72EFFB7E72088C7
:105D700019780430FFF728FFBEE72088197806302D
:105D8000FFF722FFC5E7208819780730FFF71CFFCF
:105D9000CAE7208819780930FFF716FFD3E7C04615
:105DA0004C36002070360020803600202E2900203E
:105DB00035000020FFFF0000300000202E000020F2
:105DC0002C0000203400002032000020360000208B
:105DD00073B54A4C4A4923680A884A489BB29A1AC2
:105DE000008892B290420AD80B80474947480D7804
:105DF000FF210278491B8A4201DA52190270444994
:105E000044480A8800889A1A92B2904213D80B80AC
:105E1000002370261A00404D581901784078502808
:105E200002D1314200D10A430233A02BF4D1002A1F
:105E300044D1364B1A70394922680B88384892B2DF
:105E4000D31A00889BB2984236D800230A80702566
:105E50001900314C181902784078502804D11000EC
:105E60002840102800D111430233A02BF2D1002981
:105E700022D000224B0703D52A4B1A78524252B245
:105E80000B0703D5274B1B789A1852B20023C8077B
:105E900002D5244B1B785BB2890703D521490978C9
:105EA0005B1A5BB2009200221F4C1100200005F02B
:105EB000E9FB200005F004FC002076BD002053071C
:105EC00003D51A4B1878404240B2130703D5174B3D
:105ED0001B78181840B20021D30703D5134B19784B
:105EE000494249B2930703D5104B1B78591849B260
:105EF00000F0A6FA0C4805F0E3FB9CE748030020FD
:105F0000322900202C0000202E00002040290020F3
:105F10003029002030000020813500203429002065
:105F200032000020340000204C36002035000020D4
:105F3000F7B51D4C0D00200005F0ADFB00231B48FC
:105F4000190006006027A0360196DAB2502B1BD04C
:105F50002E7896420CD04F2A0CD85A0082185678C8
:105F6000502E05D1127816003E40402E00D111432C
:105F70000133EAE70022019E3270A126B446844430
:105F800066463270019AEAE703226B781340022BCF
:105F900001D1AB78194340232000994305F081FBE0
:105FA000200005F08DFBF7BD4C3600208135002028
:105FB000012310B58A7891091940134058009307BE
:105FC000DB0F08439B0018435307DB0F1207DB006E
:105FD000D20F18431201104300F0C4F910BD0000A5
:105FE00010B5CB780024502B12D160228B781A4048
:105FF000402A03D1FFF79CFF012409E09A0609D546
:1060000003224B7801241340022B01D1FFF7D0FF6C
:10601000200010BD702213400AD10B4B0B4A1B68A5
:1060200012889BB20A499A1A0A800A4A1380E3E747
:106030000124102BECD1044B074A1B6812889B1AD1
:10604000064A1380E4E7C0464803002030000020E1
:10605000302900203229002032000020342900207D
:1060600010B5044803F0E8FD0A3843425841C0B275
:1060700010BDC046942F002073B58D4A8D480C008A
:10608000002500F087FC0600A84270D106228A494C
:10609000200006F09CFE3500002868D106348749B0
:1060A000200006F083FE002807D1FFF7D9FF844DBA
:1060B00000285ED02878FFF791FD8249200006F085
:1060C00075FE002807D1FFF7CBFF00285FD07E4B7D
:1060D0001888FFF76BFD7D49200006F067FE002859
:1060E00008D1FFF7BDFF7A4D002800D170E0287875
:1060F000FFF774FD7749200006F058FE002808D10C
:10610000FFF7AEFF002800D171E0734B1888FFF74E
:106110004DFD7249200006F049FE002808D1FFF726
:106120009FFF6F4D002800D182E02878FFF756FDD1
:106130006C49200006F03AFE002808D1FFF790FFD6
:10614000002800D183E0684B1888FFF72FFD6749CE
:10615000200006F02BFE0125002808D1FFF780FF64
:10616000634C002800D193E02078FFF737FD28002A
:1061700076BD6B46DE1D3000FFF70CFD5D4B3178C0
:1061800018882970FFF720FDFFF736FD95E76B466D
:106190009E1DDD1D307028703000FFF7FBFCFFF7FF
:1061A0005FFF002801D12800F7E73178514E2B78A6
:1061B0003088454A1B020B4301301380FFF704FD72
:1061C000308829780230FFF7FFFCFFF715FD82E7E2
:1061D0006B46DE1D3000FFF7DDFC464B317818883A
:1061E00029700330FFF7F0FCFFF706FD82E76B46EE
:1061F0009E1DDD1D307028703000FFF7CBFCFFF7CF
:106200002FFF002801D12800F7E73178394E2B788D
:106210003088314A1B020B4304301380FFF7D4FC53
:10622000308829780530FFF7CFFCFFF7E5FC70E7F1
:106230006B46DE1D3000FFF7ADFC2E4B3178188821
:1062400029700630FFF7C0FCFFF7D6FC70E76B46FD
:106250009E1DDD1D307028703000FFF79BFCFFF79E
:10626000FFFE002801D12800F7E73178214E2B7876
:1062700030881D4A1B020B4307301380FFF7A4FC34
:10628000308829780830FFF79FFCFFF7B5FC5EE700
:106290006B46DE1D3000FFF77DFC164B3178188809
:1062A00021700930FFF790FCFFF7A6FC5FE7C046BE
:1062B0004E04010053290020C0040100C70401005E
:1062C00035000020CD04010030000020D80401007A
:1062D0002E000020E30401002C000020EE04010049
:1062E00034000020F904010032000020B504010050
:1062F000360000202E29002013B56C465B08C0181C
:10630000094B520889181A7E80B22270002289B285
:106310009882D9821B696080A180A27169461B683E
:1063200008320248984713BD70360020803600209E
:106330000023064A1380064A1380064B064A138040
:10634000064A13800122064B1A7070473E2900202E
:106350003C290020FF7F0000382900203A29002036
:1063600036290020F7B5274C06002378002B01D1F1
:10637000FFF7DEFFF30702D500232370F7BD224BA2
:10638000224F1C783888210005F016FB85B23D802D
:106390001F4F2100388805F00FFB1E4982B20B8881
:1063A0003A80019306231C4F33403888062B0BD1CB
:1063B000019B1018EB189CB20C802B0081B22000BE
:1063C0003980FFF799FFD9E7730710D5631E534350
:1063D0009C4660443880F3060DD5013C6C43019B1C
:1063E0001B190B803C8808882B002100E9E7B307C4
:1063F000F1D41018EEE73307F4D4019B0548EB18ED
:106400000380EFE7362900203700002038290020DC
:106410003A2900203E2900203C29002082B240B2C7
:10642000002804DB5243D0110130C0B270478020F5
:106430004000801A404380B2C011C043F5E700001D
:10644000F0B52C4B85B01C78002307000E0025B258
:106450000293984212D0284B1878FFF7DFFF274BA2
:1064600047431B785BB2DF193BB202939D423DDB91
:10647000029A63429A4201DA1BB202930027BE429B
:106480000FD01D4B00271878FFF7C8FF1C4B464361
:10649000DF57BF193FB2BD422ADB6442A74200DA90
:1064A00027B20024174E184B35781C70290038008D
:1064B00005F082FA290043B20298039305F07CFAB2
:1064C0002300039A41B20094104805F0DBF83478B9
:1064D0000298210005F056FB084B38001970210086
:1064E00005F050FB064B197005B0F0BD0295C5E7ED
:1064F0002F00D6E736000020402900204129002047
:106500004229002038000020362900204C36002087
:1065100010B5054C01000A22200003F0CCF8202120
:10652000200003F05EF810BD942F00200020034BE4
:106530001B78834201D0024B5888704746290020BF
:106540004829002013B56B460024991D074B08808D
:106550001B78A34208D1064A83B214880548E31881
:106560001380022200F0B8F9200016BD4629002051
:106570003A0000204C290020F7B507000D00160056
:106580000C000B1D0193731B1A5D21003800FFF7EF
:1065900043F8019B01349C42F5D13000FEBD000060
:1065A00070B50025114C29002000FFF715F8104A9E
:1065B0006E1C50553500042EF4D15378FF2B12D1A8
:1065C0001178803B0B40D8B27F2803D1C90901D094
:1065D000834313700123002120005370FFF7CCFF89
:1065E0002000FFF71DF8002070BDC046DC0600202B
:1065F0004829002010B5064C064A00212000FFF76C
:10660000BBFF2000FFF70CF80122034B1A7010BDEE
:10661000DC060020482900204729002070B50F4BD8
:1066200005001B780E4C834208D9FDF787F97F22BD
:1066300029002378114093430B4323707D2D06D905
:106640007F22237893431A007E2313432370FFF79E
:10665000D1FF20784006400E70BDC0461C000020CF
:10666000482900207F23094AC101107810B518403D
:1066700008431070C0B203407F2B03D19843013B05
:1066800018431070FFF7B6FF10BDC0464829002020
:10669000012270B5104D114B102128001A7000F026
:1066A00007F90F4C6378012B03D000220D4B1A70B1
:1066B00070BD62880C492B888A420AD16380FFF73B
:1066C00099FF20784006400E7D28F1D8FDF736F975
:1066D000EEE79A42ECD1F4E74C290020462900204D
:1066E0004829002047290020FFFF0000044B10B577
:1066F0001B78002B01D1FFF7CBFF002010BDC04657
:106700004629002070B5304A30480C00002500F0C2
:1067100041F9A8423FD109222D49200006F057FB3C
:10672000A84238D109342B49200006F03FFBA8428B
:106730000AD1294C200003F07FFA0A283BD1274BCD
:1067400018784006400E2AE02549200006F02EFB6E
:10675000002827D02349200006F028FB00281CD061
:106760002149200006F022FB002814D11F4B1E886F
:10677000FFF7DCFE0500184C0A223100200002F071
:106780008AFF1B49200002F024FF0A222900200072
:1067900002F081FF0125280070BD104B5878FFF7EB
:1067A000B7FEF7E7134B187800F020F920210A48CC
:1067B00002F017FFEEE701222900200003F0ECF9B8
:1067C000C0B2FFF72BFFE5E7300501005329002099
:1067D000740501007E050100942F00204829002047
:1067E0008B050100BFD00000700501004C2900207E
:1067F000920501004729002070B5264A26480E0060
:10680000002500F0C7F8A84236D12449300006F030
:10681000CDFA0400A8421AD1214D280003F00CFA49
:106820000A282BD08026B601280003F005FA0A2892
:1068300021D001220021280003F0AEF92100C2B2CC
:1068400001341848FEF7D4FEB442EDD113E01649E6
:10685000300006F0ABFA00280ED18021134B104C0B
:106860001B888901C91A0A22200002F014FF202186
:10687000200002F0B6FE0125280070BD8025AD0184
:1068800021000848FEF7A8FE0134FFF741FEAC42A4
:10689000F6D1F0E70405010053290020200501008E
:1068A000942F0020DC060020140501003A0000208F
:1068B000012330B51D0002881A408B4209D204889A
:1068C0005200641004802C402243013392B2DBB2A8
:1068D000F3E7028030BD0000F7B58B180F4F01932E
:1068E000019B994219D0082501240B789C46038806
:1068F00066461AB234420ED15B00D20F9BB2002A18
:1069000001D07B409BB26400013DE4B2002DEFD189
:1069100003800131E4E7D243EEE7F7BD0580FFFFD6
:106920000022014B1A8070474C29002010B501202D
:10693000FFF708FE064B010018800648FEF74CFEE4
:10694000054B1870FF2801D1FDF7A4F9002010BDF8
:1069500050290020DC0600205229002010B5094BE8
:106960001A78094B1978914209D01A70074C084BD4
:1069700020001988FEF750FE2000FEF751FE00208F
:1069800010BDC0462600002052290020DC06002051
:106990005029002010B508000649140006F006FA38
:1069A0000023984204D12100034802F027FE01236E
:1069B000180010BD94050100942F002070B5094AFD
:1069C0000D000024FFF7E6FFA04208D10649280089
:1069D00006F0ECF9A04202D1FBF7E6FF01342000FB
:1069E00070BDC046990501009E05010010B504491F
:1069F000002800D10349044802F0EBFD10BDC04659
:106A0000AA050100AF050100942F002010B5084C25
:106A1000200003F0F7F8002808D0200003F00CF95C
:106A20000A2803D0200003F015F9F6E710BDC04690
:106A3000942F0020F7B51C4C0126200003F0E2F84B
:106A400000282CD0200003F005F9184D731EEB1818
:106A500018702000F7B2019303F0EEF80A2807D06F
:106A6000019B1B78202B03D00136212EEAD1202751
:106A70007A1EA95C0023202913D1AB542800FCF70F
:106A8000E1FB0B49200002F0B9FDFFF7BFFF20003A
:106A900003F0D2F80A2802D1200003F0DBF800202E
:106AA000FEBDEB55EAE7C046942F00205429002094
:106AB000A6050100F0B5134B85B01B7803AD8342EA
:106AC00007D800232B806B7828781B02184305B069
:106AD000F0BD502444430C4FC9B264186400398897
:106AE0000A4EA4B2091901313000FEF775FD39884C
:106AF000019009193000FEF76FFD6B461B79687035
:106B00002B70E0E77529002076290020DC060020A4
:106B100013B5094B01AC1B78834207D9FCF7C2FEC1
:106B20002080637820781B02184316BDC01AC0B2BB
:106B3000FFF7C0FFF4E7C0467829002010B50448ED
:106B4000FFF72EFD034B00201A78034B1A7010BD7F
:106B5000432900201C0000207829002010B5054C96
:106B60000549200002F035FD0A21200002F039FD20
:106B7000002010BD942F0020B5050100044B10B576
:106B80001870A0235843FFF7DDFC024B188010BD9E
:106B90007529002076290020094B0A491B7810B579
:106BA000DB090870084A04D0084B1360FFF7E6FFC2
:106BB00010BD074B1B78C3180B70064BF5E7C0469A
:106BC000482900201C00002020000020B56A000099
:106BD00078290020116B0000F7B50A4E01AF39800B
:106BE000094C0A043188450049192000120EFEF7AD
:106BF000FFFC31883A78491901312000FEF7F8FC92
:106C0000F7BDC04676290020DC060020F0B50F0055
:106C1000002585B00190EBB20093019BAB4213D0ED
:106C20000024211C0098B847084E81B20A22300087
:106C3000013402F030FDE4B22021300002F0D1FC3A
:106C4000502CEED10135E6E705B0F0BD942F0020C1
:106C500073B5404A40480D000024FFF79BFEA04258
:106C600020D107223D49280006F0B1F8A04219D1F1
:106C700007353B49280006F099F80600A0422ED1BE
:106C8000384C200002F0D8FF02000A280CD1364B05
:106C900020001978C90902F00EFD2021200002F021
:106CA000A0FC0124200076BD01223100200002F06A
:106CB00073FF01ABC4B218702000FFF7D3FC2B4B5D
:106CC0002B491B782B4A0B70002C02D02A4B1360E7
:106CD000E7E72A4800781B180B70294BF7E729498A
:106CE000280006F063F8002805D1244B26491878BF
:106CF000FFF78CFFD5E72549280006F057F8002854
:106D0000D0D1184D5026280002F096FF0A2803D152
:106D1000164B19491878EBE7280002F08DFF0A2876
:106D200014D0124B1B7873439C420FDA01220021CE
:106D3000280002F031FF01AB021218705A702000D7
:106D400001990134FFF748FFA4B2E5E71048FEF7C8
:106D500067FCA6E7C205010053290020F1050100E8
:106D6000E6050100942F0020482900207529002005
:106D70001C00002020000020B56A000078290020B7
:106D8000116B0000F9050100A538000001060100A3
:106D9000DC060020FA2110B5024B8900186804F0C7
:106DA00081FD10BD3C0000200B4B10B51A68002A75
:106DB0000FD00A4B1B78002B0BD0094B09491B68DD
:106DC00009685B1A9A4204D8FCF7DEFF0122064BE1
:106DD0001A70002010BDC0463C0000202500002095
:106DE000480300207C2900208029002010B5074C92
:106DF0002378002B03D0FCF7A5FF00232370044B5E
:106E000000201A68034B1A6010BDC046802900207C
:106E1000480300207C29002010B5054C05492000BE
:106E200002F0D7FB0A21200002F0DBFB002010BD9E
:106E3000942F002008060100FA2370B504009B007F
:106E400043430A4A0A4E13600A4BC2B21D883000FF
:106E50002900FEF7E1FB2204691C3000120EFEF748
:106E6000DBFB3000FEF7DCFB70BDC0463C000020C1
:106E7000DC0600207A29002073B50220FFF762FBB0
:106E80000D4B0E4E1880010005003000FEF7A4FBEC
:106E90006B469C1D2070691C3000FEF79DFB6070E6
:106EA0002288074B9A4202D1064B1B682380208818
:106EB000FFF7C2FF002076BD7A290020DC06002003
:106EC000FFFF00003C00002070B5184E184832004B
:106ED0000D000024FFF75EFDA0421CD13100280008
:106EE00005F064FFA04216D1124D280002F0A4FE66
:106EF00006000A2811D1FA210F4B8900186804F006
:106F0000D1FC32000100280002F0C9FB202128003A
:106F100002F067FB0124200070BD0122210028003F
:106F200002F03AFE80B2FFF787FFF3E71B0601008D
:106F300053290020942F00203C0000207047704708
:106F400010B5084B1A78084B9B18013B1978074B72
:106F50001970074B1B788B4203D3064B188800F03F
:106F6000F5F810BD1E0000204D03002082290020EE
:106F7000832900208429002010B50A1C054B0649EE
:106F80001B780978994204D304490888190000F055
:106F9000F7F810BD822900208329002084290020D1
:106FA00010B5054C2388002B05D1044B080019703F
:106FB00000F066F8208010BD84290020832900207D
:106FC00010B5054C0549200002F003FB0A21200002
:106FD00002F007FB002010BD942F00202F060100B7
:106FE00010B5054B02781B789A4203D1034B186801
:106FF000FFF7A6FF002010BD26000020C4030020DC
:1070000007B5054A054B12781B8805480092054ACA
:1070100000F054F90EBDC0468329002084290020C9
:10702000862900203E060100FF22014B1A7070479E
:107030008129002010B5054C01000A22200002F031
:107040003AFB2021200002F0CCFA10BD942F002042
:10705000094B07B51B78002B0DD0002201AB1A801D
:107060009A700198FCF7F6FD044B1868002802D0CE
:1070700003685B68984707BD25000020C403002013
:1070800070B5074C05002388002B03D13020FFF793
:1070900059FA208042206843FFF754FA70BDC04679
:1070A0008829002010B50C00490809180548FEF78A
:1070B00093FA02000011C0B2E30701D50F2010407F
:1070C00010BDC046DC060020F7B50324124B444334
:1070D0001888124F2418A4B221003800FEF77CFA59
:1070E000611C06003800FEF777FA0500A11C380085
:1070F000FEF772FAF6436B46ED431E705D701A8818
:10710000FF231100120A1940120283431B040A4391
:107110001A431000FEBDC04688290020DC0600206E
:1071200007B5FFF7BFFFFFF7CFFFFF210300020AFC
:107130000A4012020B401343000C034A08400004AB
:10714000134018430EBDC046FFFF00FF37B5422570
:1071500000244D434519ADB2A1B22800FFF7E0FF6E
:1071600001AB187002040002120E000E98705A70E3
:10717000E0B201990134FCF7EDFC842CECD137BD71
:10718000422313B55943D3B24018141C80B2FF21D7
:107190004F2B01D8084AD15C89B2FFF7C1FF01AB80
:1071A000187002040002120E000E98705A700199B5
:1071B000201CFCF7DBFC13BD25DE000010B50448E5
:1071C00002F03AFD0A3843425841C0B210BDC046F1
:1071D000942F0020F0B5344E85B0320033480C00B7
:1071E000FFF7D8FB05000020854220D120003100A8
:1071F00005F0DCFD04002800002C18D1FFF7DEFFAD
:10720000002816D02000FFF75FFF06040502360EA7
:10721000C0B2FFF70FFF2D0E30000134FFF70AFF59
:10722000E4B22800FFF706FF102CEBD1012005B0D7
:10723000F0BD0400FFF7C2FF1D4D061E2ED11D4FED
:1072400001000122380002F0A7FC31000090012269
:10725000380002F0A1FC310001900122380002F058
:107260009BFC154B07001E88009BA619DA43B6B29B
:10727000D2B231002800FEF7CFF9019B711CDA432E
:107280002800D2B2FEF7C8F9FA430334D2B2B11CD7
:107290002800A4B2FEF7C0F9302CCBD12800FEF7AD
:1072A000BFF9FFF7D5FEC1E76406010053290020AE
:1072B000DC060020942F002088290020F0B585B03E
:1072C00002932F480AAB0C0017001E78FFF762FBF1
:1072D00005000020854251D12000390005F066FDEF
:1072E00004002800002C49D1422373430193FFF787
:1072F00065FF00281BD0F026019AA3B293423CD22E
:10730000029B20481919FEF767F905000011C0B269
:10731000FFF790FE29001C4FB1430A22380002F00B
:10732000BAF92021380002F05CF90134E4E70400E6
:10733000FFF744FF134F061E1AD1019AA3B29A42D7
:1073400016D9114D01000122280002F025FC01226E
:1073500003903100280002F01FFC039B1A01029BDE
:1073600012181919D2B23800FEF742F90134DFE7DA
:107370003800FEF755F9FFF76BFE012005B0F0BDB0
:1073800053290020DC060020942F0020704770470E
:1073900013B5134BC27A41681B6804009B1A087826
:1073A000DBB2984218D81218E2724A782089217B01
:1073B000FCF736FE01AB187002040002120E000E3C
:1073C0005A709870A37A22899B189BB2FE2B04D81E
:1073D00023810198FCF73EFC13BDFF3BF8E7C04654
:1073E0004803002037B54368C27A19781C4B040063
:1073F0001B689B1ADBB299422FD852180121C27226
:10740000184A13680B4002D1174811600370002519
:107410002089842D1BD0AB081B01C01880B2FE2828
:1074200001D9FF38FAE76368217B5A78FCF7F8FD49
:1074300001AB187002040002120E000E98705A7010
:10744000280001990135FCF785FBEDB2E0E7A37A4E
:10745000C01880B2FE2801D8208137BDFF38FBE775
:1074600048030020BC030020C00300204170704787
:107470004170704728223221034B1A705970034B18
:107480001A70D2325A7070478A2900208C29002045
:1074900013B508780C00C043C3B21A002320991119
:1074A000C9435A434042584352430012120E8A1AAB
:1074B0002330D2B2C0B2FF21FCF7B2FD6B466A4660
:1074C000187003041B0E537000022378000E907096
:1074D000032B0ED8002323706B461A88997810006E
:1074E000FF23120A184012020B401B0410431843DA
:1074F00016BD043BEFE70000F0B5234F85B03B68B5
:107500000500002B3DD0214E03893268D31A204A52
:107510009BB212889A4234D80024E3B20093502CD4
:107520002DD02B1902AA01939B7AD11C0B70002B32
:1075300010D0386803681B68984703AB18700204C2
:107540000002000E120E98705A706B46039918785C
:10755000FCF70CFB02AB03331B782A199372002B48
:107560000BD10C4A5178137809020B439178090426
:1075700019436B461878FCF7F9FA0134CDE7336804
:107580002B8105B0F0BDC04694290020480300209F
:10759000400000208F29002010B541600021040028
:1075A000044B01810833036050220A3005F009FBC7
:1075B000200010BD9C0601000A784F2A09D8064B0E
:1075C00001781B78994204D1044B1B689B18FF2259
:1075D0009A7200207047C04626000020C403002095
:1075E000014B083303607047B4060100FF22014BD2
:1075F0001A7070478E29002070B590220025074B25
:10760000040008330571036029005200053005F0BD
:10761000D8FA2623FF33E554200070BD500701003F
:107620004B7810B59B070DD52623FF33C45C064A63
:107630000B78D25C90236343C3189B187F225A7146
:1076400000230371002010BDC00601000A7803006A
:1076500010B500204F2A08D81A78044B1B789A429C
:1076600003D1034B1868FFF7DBFF10BD2600002095
:10767000C403002010B5122454430C19E0B27F2437
:107680001C541818002A06D160238374002909D1DC
:107690006023437010BD03006024123B1C70062A57
:1076A000F4D8F1E76022431E1A701029F2D8EFE7F0
:1076B00010B58024084A09491368E40001330B40DF
:1076C0001C43074B14601868282104F0EBF823785A
:1076D000C018C0B210BDC04648000020FF4B0000DB
:1076E00048030020F0B5844B282187B004001868B7
:1076F00004F0D8F8814BC2B21978914200D1A6E0CB
:1077000001211A707E4A0D0013780840013313706E
:1077100026222379FF32013323719023A65C009047
:1077200075405D437343053505336519E3180295CC
:107730000193FF260392002800D18AE0714B1B8839
:10774000002B3CD00021704D6956002908DB6F4F9B
:10775000C9B23A78019B2000FFF78CFF3E702E7073
:10776000684D2821288804F09DF8694E80B233784E
:107770002779C018874222DB2000FFF799FF782184
:1077800004F016F9043131702888282104F08AF8B1
:1077900020712000FFF78CFF122104F009F920006E
:1077A000CEB20725FFF784FF0540019B2A00310078
:1077B0002000FFF75FFF544B1E70544B1D700025D7
:1077C000FF27544B5E5D019B9B579C46009B002B03
:1077D00004D0029B9857604443109C466346DA17D6
:1077E0009B1853405B00DBB2D94358B2C9B23A0090
:1077F000002801DB5B00DAB2474B0020185E474BE4
:10780000984206D160463E4B40101B7863441818DE
:10781000384092B289B280B2FCF702FC04AB187017
:107820000304000204AA1B0E000E9070537004990A
:1078300030000135FCF78EF9902DC2D1009B002B52
:1078400005D1039BE25C01235340039AA35407B084
:10785000F0BD009B029D9C4619000022304B049312
:10786000304B0593002930D104AB19702E4B04A87E
:107870008380D3B2002A31D104AB9A701B7904A85B
:107880000133037183790133837100200300019E6A
:107890006644B71804AE86570130BE57F3181BB2C2
:1078A0000828F7D1A8569B101B1A9BB218B2C0101B
:1078B0001B1AAB540132122AD0D112230131C9B2A2
:1078C00012359C440829C8D179E70729D1D1002075
:1078D00004AB5870144B04A8C380CAE7112BD4D151
:1078E000002004ABD8705B7904A8013B4371C379D5
:1078F000013BC371C9E7C046480300209B29002013
:107900009929002044000020460000204700002064
:107910009A290020C006010042000020FF7F0000DD
:10792000EE12FF01EDEF1113FF010000FF22014BEA
:107930001A7070479829002010B50400084BA02247
:10794000083308C0002105F03CF923000122A433CC
:107950001A80044B20001A682300A6331A8010BD39
:107960007407010048030020F0B50C1C85B000210D
:10797000201C04F035F9002800D06CE0FE21374BC4
:107980008905201C1E7804F03FF9013E002803D031
:10799000F6B23700002513E0300005F007F8211C8F
:1079A00004F0EEFC051C04F0E1FFC6B2300005F067
:1079B00047F8011C281C04F015FE771CFFB2051CBB
:1079C0000320274B474370431C68E7192418267887
:1079D0003878801B04F0EAFF291C04F0D1FC0090E9
:1079E000300004F0E3FF011C009804F057F904F0A4
:1079F0003DF96678C3B278780093801B04F0D6FF17
:107A0000291C04F0BDFC0190300004F0CFFF011CE4
:107A1000019804F043F904F029F9A478C6B2B878C3
:107A2000001B04F0C3FF291C04F0AAFC051C200065
:107A300004F0BCFF011C281C04F030F904F016F916
:107A4000FF23009A1E401840360213401B043043A7
:107A5000184305B0F0BD00273E009BE75200002010
:107A60004C000020F7B50100194BA6311A6805003B
:107A70000B88184892B2D31A00889BB2984225D836
:107A800000240A80E6B20134512C1FD06300EB18A9
:107A9000588804F0D5FF2B00A433071C188804F085
:107AA00085FF011C381C04F093FA011C2800FFF725
:107AB0005BFF01AB187002040002120E000E9870FA
:107AC0005A700199301CFCF751F8DBE7F7BDC0464E
:107AD0004803002050000020031DA4301A885210D3
